{
  "contractName": "Shop",
  "abi": [
    {
      "inputs": [
        {
          "internalType": "address",
          "name": "_tokenAddress",
          "type": "address"
        }
      ],
      "stateMutability": "nonpayable",
      "type": "constructor"
    },
    {
      "anonymous": false,
      "inputs": [
        {
          "indexed": false,
          "internalType": "uint256",
          "name": "pid",
          "type": "uint256"
        },
        {
          "indexed": false,
          "internalType": "address",
          "name": "seller",
          "type": "address"
        },
        {
          "indexed": false,
          "internalType": "uint256",
          "name": "timestamp",
          "type": "uint256"
        }
      ],
      "name": "AddedProduct",
      "type": "event"
    },
    {
      "anonymous": false,
      "inputs": [
        {
          "indexed": false,
          "internalType": "uint256",
          "name": "pid",
          "type": "uint256"
        },
        {
          "indexed": false,
          "internalType": "address",
          "name": "buyer",
          "type": "address"
        },
        {
          "indexed": false,
          "internalType": "uint256",
          "name": "timestamp",
          "type": "uint256"
        }
      ],
      "name": "BuyProduct",
      "type": "event"
    },
    {
      "inputs": [
        {
          "internalType": "uint256",
          "name": "_pid",
          "type": "uint256"
        },
        {
          "internalType": "string",
          "name": "_name",
          "type": "string"
        },
        {
          "internalType": "uint256",
          "name": "_price",
          "type": "uint256"
        },
        {
          "internalType": "uint256",
          "name": "_quantity",
          "type": "uint256"
        },
        {
          "internalType": "string",
          "name": "_imgPath",
          "type": "string"
        },
        {
          "internalType": "uint256",
          "name": "timestamp",
          "type": "uint256"
        }
      ],
      "name": "addProduct",
      "outputs": [],
      "stateMutability": "nonpayable",
      "type": "function"
    },
    {
      "inputs": [
        {
          "internalType": "uint256",
          "name": "_pid",
          "type": "uint256"
        }
      ],
      "name": "getProduct",
      "outputs": [
        {
          "internalType": "string",
          "name": "name",
          "type": "string"
        },
        {
          "internalType": "uint256",
          "name": "price",
          "type": "uint256"
        },
        {
          "internalType": "uint256",
          "name": "quantity",
          "type": "uint256"
        },
        {
          "internalType": "string",
          "name": "imgPath",
          "type": "string"
        },
        {
          "internalType": "address",
          "name": "seller",
          "type": "address"
        }
      ],
      "stateMutability": "view",
      "type": "function",
      "constant": true
    },
    {
      "inputs": [
        {
          "internalType": "uint256",
          "name": "_pid",
          "type": "uint256"
        },
        {
          "internalType": "uint256",
          "name": "_timestamp",
          "type": "uint256"
        }
      ],
      "name": "buyProduct",
      "outputs": [],
      "stateMutability": "nonpayable",
      "type": "function"
    }
  ],
  "bytecode": "0x608060405234801561001057600080fd5b50604051610dbe380380610dbe833981810160405281019061003291906100dc565b80600260006101000a81548173ffffffffffffffffffffffffffffffffffffffff021916908373ffffffffffffffffffffffffffffffffffffffff16021790555050610109565b600080fd5b600073ffffffffffffffffffffffffffffffffffffffff82169050919050565b60006100a98261007e565b9050919050565b6100b98161009e565b81146100c457600080fd5b50565b6000815190506100d6816100b0565b92915050565b6000602082840312156100f2576100f1610079565b5b6000610100848285016100c7565b91505092915050565b610ca6806101186000396000f3fe608060405234801561001057600080fd5b50600436106100415760003560e01c806353b6286614610046578063b9db15b414610062578063dd31ee5714610096575b600080fd5b610060600480360381019061005b91906106bc565b6100b2565b005b61007c600480360381019061007791906106fc565b6102c1565b60405161008d959493929190610812565b60405180910390f35b6100b060048036038101906100ab91906109a8565b6104a5565b005b6000806000848152602001908152602001600020600301541161010a576040517f08c379a000000000000000000000000000000000000000000000000000000000815260040161010190610ab9565b60405180910390fd5b600080600084815260200190815260200160002090506000339050600260009054906101000a900473ffffffffffffffffffffffffffffffffffffffff1673ffffffffffffffffffffffffffffffffffffffff1663beabacc8828460040160009054906101000a900473ffffffffffffffffffffffffffffffffffffffff1685600201546040518463ffffffff1660e01b81526004016101ac93929190610ad9565b6020604051808303816000875af11580156101cb573d6000803e3d6000fd5b505050506040513d601f19601f820116820180604052508101906101ef9190610b48565b5060018260030160008282546102059190610ba4565b9250508190555060016000858152602001908152602001600020819080600181540180825580915050600190039060005260206000200160009091909190916101000a81548173ffffffffffffffffffffffffffffffffffffffff021916908373ffffffffffffffffffffffffffffffffffffffff1602179055507f6e963996302b87595be0bd0f2d400e2f43c1cfce4378ba7e9b34305fe2f2746b8482856040516102b393929190610bd8565b60405180910390a150505050565b606060008060606000806000808881526020019081526020016000206040518060a00160405290816000820180546102f890610c3e565b80601f016020809104026020016040519081016040528092919081815260200182805461032490610c3e565b80156103715780601f1061034657610100808354040283529160200191610371565b820191906000526020600020905b81548152906001019060200180831161035457829003601f168201915b5050505050815260200160018201805461038a90610c3e565b80601f01602080910402602001604051908101604052809291908181526020018280546103b690610c3e565b80156104035780601f106103d857610100808354040283529160200191610403565b820191906000526020600020905b8154815290600101906020018083116103e657829003601f168201915b5050505050815260200160028201548152602001600382015481526020016004820160009054906101000a900473ffffffffffffffffffffffffffffffffffffffff1673ffffffffffffffffffffffffffffffffffffffff1673ffffffffffffffffffffffffffffffffffffffff1681525050905080600001518160400151826060015183602001518460800151955095509550955095505091939590929450565b6040518060a001604052808681526020018381526020018581526020018481526020013373ffffffffffffffffffffffffffffffffffffffff1681525060008088815260200190815260200160002060008201518160000190805190602001906105109291906105cf565b50602082015181600101908051906020019061052d9291906105cf565b50604082015181600201556060820151816003015560808201518160040160006101000a81548173ffffffffffffffffffffffffffffffffffffffff021916908373ffffffffffffffffffffffffffffffffffffffff1602179055509050507f283a98e56d9d477bc9675301834a627bc96a173f644ce87ab9bbeee35e1929658633836040516105bf93929190610bd8565b60405180910390a1505050505050565b8280546105db90610c3e565b90600052602060002090601f0160209004810192826105fd5760008555610644565b82601f1061061657805160ff1916838001178555610644565b82800160010185558215610644579182015b82811115610643578251825591602001919060010190610628565b5b5090506106519190610655565b5090565b5b8082111561066e576000816000905550600101610656565b5090565b6000604051905090565b600080fd5b600080fd5b6000819050919050565b61069981610686565b81146106a457600080fd5b50565b6000813590506106b681610690565b92915050565b600080604083850312156106d3576106d261067c565b5b60006106e1858286016106a7565b92505060206106f2858286016106a7565b9150509250929050565b6000602082840312156107125761071161067c565b5b6000610720848285016106a7565b91505092915050565b600081519050919050565b600082825260208201905092915050565b60005b83811015610763578082015181840152602081019050610748565b83811115610772576000848401525b50505050565b6000601f19601f8301169050919050565b600061079482610729565b61079e8185610734565b93506107ae818560208601610745565b6107b781610778565b840191505092915050565b6107cb81610686565b82525050565b600073ffffffffffffffffffffffffffffffffffffffff82169050919050565b60006107fc826107d1565b9050919050565b61080c816107f1565b82525050565b600060a082019050818103600083015261082c8188610789565b905061083b60208301876107c2565b61084860408301866107c2565b818103606083015261085a8185610789565b90506108696080830184610803565b9695505050505050565b600080fd5b600080fd5b7f4e487b7100000000000000000000000000000000000000000000000000000000600052604160045260246000fd5b6108b582610778565b810181811067ffffffffffffffff821117156108d4576108d361087d565b5b80604052505050565b60006108e7610672565b90506108f382826108ac565b919050565b600067ffffffffffffffff8211156109135761091261087d565b5b61091c82610778565b9050602081019050919050565b82818337600083830152505050565b600061094b610946846108f8565b6108dd565b90508281526020810184848401111561096757610966610878565b5b610972848285610929565b509392505050565b600082601f83011261098f5761098e610873565b5b813561099f848260208601610938565b91505092915050565b60008060008060008060c087890312156109c5576109c461067c565b5b60006109d389828a016106a7565b965050602087013567ffffffffffffffff8111156109f4576109f3610681565b5b610a0089828a0161097a565b9550506040610a1189828a016106a7565b9450506060610a2289828a016106a7565b935050608087013567ffffffffffffffff811115610a4357610a42610681565b5b610a4f89828a0161097a565b92505060a0610a6089828a016106a7565b9150509295509295509295565b7f50726f6475637420697320736f6c64206f757400000000000000000000000000600082015250565b6000610aa3601383610734565b9150610aae82610a6d565b602082019050919050565b60006020820190508181036000830152610ad281610a96565b9050919050565b6000606082019050610aee6000830186610803565b610afb6020830185610803565b610b0860408301846107c2565b949350505050565b60008115159050919050565b610b2581610b10565b8114610b3057600080fd5b50565b600081519050610b4281610b1c565b92915050565b600060208284031215610b5e57610b5d61067c565b5b6000610b6c84828501610b33565b91505092915050565b7f4e487b7100000000000000000000000000000000000000000000000000000000600052601160045260246000fd5b6000610baf82610686565b9150610bba83610686565b925082821015610bcd57610bcc610b75565b5b828203905092915050565b6000606082019050610bed60008301866107c2565b610bfa6020830185610803565b610c0760408301846107c2565b949350505050565b7f4e487b7100000000000000000000000000000000000000000000000000000000600052602260045260246000fd5b60006002820490506001821680610c5657607f821691505b60208210811415610c6a57610c69610c0f565b5b5091905056fea2646970667358221220135ade5ce510e4799b6b153a65b74eefff52e55ea470aa928628c3c2c7982b9364736f6c634300080b0033",
  "immutableReferences": {},
  "source": "// SPDX-License-Identifier: MIT\r\npragma solidity >=0.4.22 <0.9.0;\r\n\r\nimport \"./Token.sol\";\r\n\r\ncontract Shop {\r\n    struct Product {\r\n        string name;\r\n        string imgPath;\r\n        uint256 price;\r\n        uint256 quantity;\r\n        address seller;\r\n    }\r\n    event AddedProduct(uint256 pid, address seller, uint256 timestamp);\r\n    event BuyProduct(uint256 pid, address buyer, uint256 timestamp);\r\n    mapping (uint256 => Product) products;\r\n    mapping (uint256 => address[]) buying;\r\n    Token token;\r\n\r\n    constructor (address _tokenAddress) public {\r\n        token = Token(_tokenAddress);\r\n    }\r\n\r\n    function addProduct(\r\n        uint256 _pid,\r\n        string memory _name,\r\n        uint256 _price,\r\n        uint256 _quantity,\r\n        string memory _imgPath,\r\n        uint256 timestamp\r\n    ) public {\r\n        products[_pid] = Product({\r\n            name: _name,\r\n            imgPath: _imgPath,\r\n            price: _price,\r\n            quantity: _quantity,\r\n            seller: msg.sender\r\n        });\r\n        emit AddedProduct(_pid, msg.sender, timestamp);\r\n    }\r\n\r\n    function getProduct(uint256 _pid) public view returns (string memory name, uint256 price, uint256 quantity, string memory imgPath, address seller) {\r\n        Product memory product = products[_pid];\r\n        return (product.name, product.price, product.quantity, product.imgPath, product.seller);\r\n    }\r\n\r\n    function buyProduct(uint256 _pid, uint256 _timestamp) public {\r\n        require(products[_pid].quantity > 0, \"Product is sold out\");\r\n\r\n        Product storage product = products[_pid];\r\n        address _buyer = msg.sender;\r\n        token.transfer(_buyer, product.seller, product.price);\r\n\r\n        product.quantity -= 1;\r\n\r\n        buying[_pid].push(_buyer);\r\n        emit BuyProduct(_pid, _buyer, _timestamp);\r\n    }\r\n}",
  "sourcePath": "D:\\simple_ecommerce_contract\\contracts\\Shop.sol",
  "compiler": {
    "name": "solc",
    "version": "0.8.11+commit.d7f03943.Emscripten.clang"
  },
  "schemaVersion": "3.4.4",
  "updatedAt": "2022-03-13T18:32:37.814Z",
  "networkType": "ethereum",
  "devdoc": {
    "kind": "dev",
    "methods": {},
    "version": 1
  },
  "userdoc": {
    "kind": "user",
    "methods": {},
    "version": 1
  }
}